:100000000C9434000C94F9000C9451000C945100A1
:100010000C9451000C9451000C9451000C9451001C
:100020000C9451000C9451000C9451000C9451000C
:100030000C9451000C9451000C9451000C945100FC
:100040000C9484000C9451000C9451000C945100B9
:100050000C9451000C9451000C9451000C945100DC
:100060000C9451000C94510011241FBECFEFD8E026
:10007000DEBFCDBF11E0A0E0B1E0EAEAF3E002C0EC
:1000800005900D92A230B107D9F721E0A2E0B1E0CE
:1000900001C01D92AB30B207E1F70E947C010C94C5
:1000A000D3010C940000569A5E9814BC15BC85B51B
:1000B000836085BDEEE6F0E0808181608083789486
:1000C00008958B30910548F481E0809302015E9A97
:1000D000109206011092050108958536910520F0D1
:1000E000109202015E9808959C01220F331F220F87
:1000F000331F820F931FC2979093060180930501CF
:1001000081E08093020108951F920F920FB60F9223
:1001100011242F933F938F939F9380910201882303
:1001200011F18091050190910601892BE1F08091F8
:1001300003019091040101969093040180930301BF
:1001400020910301309104018091050190910601F5
:100150002817390740F09BB180E489278BB91092AA
:100160000401109203019F918F913F912F910F9065
:100170000FBE0F901F901895579A5F985298109243
:10018000800082E080938100E9E6F0E08081816078
:100190008083E89A789408951092080110920701DC
:1001A0005F9A85E38A95F1F700005F9808950E94B1
:1001B000CC0080E090E005C0019680362AEE9207E0
:1001C000A9F0209108012223B9F32091090130916F
:1001D0000A01AFE9B6E40E94C4019695879592950D
:1001E00082958F7089279F70892708958FEF9FEFE1
:1001F00008951F920F920FB60F9211248F939F9321
:100200004A9B08C0109285001092840081E0809380
:10021000070111C080910701882369F08091840053
:100220009091850090930A018093090181E0809369
:100230000801109207019F918F910F900FBE0F90B0
:100240001F9018958AB188638AB93998419A38986D
:10025000409880E480937C0087E880937A0083E272
:100260008093B00084E08093B1001092B4000895B0
:1002700080E480937C00EAE7F0E080818064808302
:10028000808186FDFDCF80917800909179009695D0
:10029000879596958795982F8150813308F492E33E
:1002A00020910001892F291708F4822F319903C06A
:1002B0005C9A5D9802C05C985D9A8093B400089542
:1002C0008093000108958B30910590F0843691055C
:1002D00088F49C012A503109AFEFB0E00E94C401BC
:1002E0002AE530E040E050E00E94A201822F08950C
:1002F00080E008958FEF08950E9422010E94BC00C3
:100300000E94530031990BC00E94D700EC010E945B
:100310006100CE010E9463010E94600107C08FEF5F
:100320009FEF0E9461008FEF0E9460010E943801E0
:100330002FEF8DEE92E0215080409040E1F700C019
:100340000000E0CFA1E21A2EAA1BBB1BFD010DC0CD
:10035000AA1FBB1FEE1FFF1FA217B307E407F50775
:1003600020F0A21BB30BE40BF50B661F771F881F51
:10037000991F1A9469F760957095809590959B01E7
:10038000AC01BD01CF010895A29FB001B39FC00190
:10039000A39F700D811D1124911DB29F700D811DB1
:0A03A0001124911D0895F894FFCF79
:0203AA00FF0052
:00000001FF
